:100000000C945D000C9485000C9485000C94850084
:100010000C9485000C9485000C9485000C9485004C
:100020000C9485000C9485000C9485000C9485003C
:100030000C9485000C9485000C9485000C9485002C
:100040000C9435020C9485000C94A5020C947F024C
:100050000C9485000C9485000C9485000C9485000C
:100060000C9485000C94850000000008000201003B
:100070000003040700000000000000000000000072
:10008000250028002B0000000000240027002A0083
:10009000040404040404040402020202020203032E
:1000A0000303030301020408102040800102040836
:1000B0001020010204081020050411241FBECFEFF8
:1000C000D8E0DEBFCDBF11E0A0E0B1E0EEECF8E09B
:1000D00002C005900D92AA31B107D9F721E0AAE13B
:1000E000B1E001C01D92A23CB207E1F710E0CDE5FE
:1000F000D0E004C02197FE010E945A04CC35D107FC
:10010000C9F70E94D7020C9465040C940000EDEA34
:10011000F0E02491E9E9F0E08491882399F090E0FF
:10012000880F991FFC01EA57FF4FA591B491FC017C
:10013000E458FF4F859194918FB7F894EC91E22B9E
:10014000EC938FBF0895E1E7F0E09491EDEAF0E0E1
:100150002491E9E9F0E0E491EE2309F43CC099230D
:1001600039F1933091F038F49130A9F0923001F5E3
:1001700094B59F7D12C0973091F09830A1F09430E3
:10018000B9F4909180009F7D03C0909180009F778B
:10019000909380000DC094B59F7794BD09C0909155
:1001A000B0009F7703C09091B0009F7D9093B00006
:1001B000F0E0EE0FFF1FE458FF4FA591B4919FB7F9
:1001C000F894811104C08C912095282302C0EC91F1
:1001D0002E2B2C939FBF08953FB7F8948091210157
:1001E00090912201A0912301B091240126B5A89BF2
:1001F00005C02F3F19F00196A11DB11D3FBFBA2FB9
:10020000A92F982F8827820F911DA11DB11DBC0118
:10021000CD0142E0660F771F881F991F4A95D1F7DD
:100220000895CF92DF92EF92FF920F931F93CF9397
:10023000DF936C017A018B01C0E0D0E0CE15DF05C1
:1002400081F0D8016D918D01D601ED91FC91019065
:10025000F081E02DC6010995892B11F02196EECF92
:100260007E01C701DF91CF911F910F91FF90EF9019
:10027000DF90CF900895089580E090E00895FC010C
:10028000538D448D252F30E0842F90E0821B930BFB
:10029000541710F0CF96089501970895FC01918DA1
:1002A000828D981761F0828DDF01A80FB11D5D96D8
:1002B0008C91928D9F5F9F73928F90E008958FEF46
:1002C0009FEF0895FC01918D828D981731F0828DFA
:1002D000E80FF11D858D90E008958FEF9FEF089551
:1002E000FC01918D228D892F90E0805C9F4F821BB5
:1002F00091098F739927089585E291E00E9470011A
:1003000021E0892B09F420E0822F0895FC01848DDF
:10031000DF01A80FB11DA35ABF4F2C91848D90E02F
:1003200001968F739927848FA689B7892C93A0890A
:10033000B1898C91837080648C93938D848D981394
:1003400006C00288F389E02D80818F7D8083089527
:10035000EF92FF920F931F93CF93DF93EC0181E015
:10036000888F9B8D8C8D981305C0E889F9898081D1
:1003700085FD26C0F62E0B8D10E00F5F1F4F0F730B
:100380001127E02E8C8DE8120CC00FB607FCFACFB7
:10039000E889F989808185FFF5CFCE010E94860129
:1003A000F1CF8B8DFE01E80FF11DE35AFF4FF08274
:1003B0009FB7F8940B8FEA89FB89808180620AC01D
:1003C0009FB7F894EE89FF896083E889F989808175
:1003D0008370806480839FBF81E090E0DF91CF9144
:1003E0001F910F91FF90EF900895CF93DF93EC0151
:1003F000888D8823C9F0EA89FB89808185FD05C045
:10040000A889B9898C9186FD0FC00FB607FCF5CF7E
:10041000808185FFF2CFA889B9898C9185FFEDCFC6
:10042000CE010E948601E7CFDF91CF91089580E051
:1004300090E0892B29F00E947C0181110C9400002E
:100440000895009769F0FC0101900020E9F73197C9
:10045000AF01481B590BBC0185E291E00C941101DE
:1004600080E090E008950E9460041F920F920FB602
:100470000F9211242F933F938F939F93AF93BF932A
:1004800080911D0190911E01A0911F01B09120014A
:1004900030911C0123E0230F2D3720F40196A11D7C
:1004A000B11D05C026E8230F0296A11DB11D2093A2
:1004B0001C0180931D0190931E01A0931F01B09316
:1004C00020018091210190912201A0912301B091FE
:1004D00024010196A11DB11D809321019093220159
:1004E000A0932301B0932401BF91AF919F918F916D
:1004F0003F912F910F900FBE0F901F9018951F9254
:100500000F920FB60F9211242F933F934F935F9347
:100510006F937F938F939F93AF93BF93EF93FF93CB
:1005200085E291E00E948601FF91EF91BF91AF912A
:100530009F918F917F916F915F914F913F912F91FB
:100540000F900FBE0F901F9018951F920F920FB62D
:100550000F9211242F938F939F93EF93FF93E0912A
:100560003501F09136018081E0913B01F0913C0131
:1005700082FD12C0908180913E018F5F8F73209128
:100580003F01821751F0E0913E01F0E0EB5DFE4F3C
:10059000958F80933E0101C08081FF91EF919F91E3
:1005A0008F912F910F900FBE0F901F9018957894F8
:1005B00084B5826084BD84B5816084BD85B5826068
:1005C00085BD85B5816085BD80916E008160809319
:1005D0006E00109281008091810082608093810082
:1005E0008091810081608093810080918000816092
:1005F000809380008091B10084608093B1008091ED
:10060000B00081608093B00080917A008460809314
:100610007A0080917A00826080937A0080917A00DB
:10062000816080937A0080917A00806880937A005C
:100630001092C1000E948700E0913501F0913601CF
:1006400082E08083E0913101F09132011082E091EB
:100650003301F09134018FEC808310923D01E091E1
:100660003901F0913A0186E08083E0913701F09101
:100670003801808180618083E0913701F0913801F9
:10068000808188608083E0913701F091380180811A
:1006900080688083E0913701F091380180818F7DFF
:1006A000808301E710E09AE0E92EF12CC0911A0155
:1006B000D0911B010E948700209711F480E004C0B4
:1006C000CF3FD10521F481E00E94A30042C0F80190
:1006D00084918330F9F048F48130B9F08230A1F58B
:1006E00084B5806284BDC8BD34C08730E9F08830ED
:1006F00019F1843049F580918000806280938000F8
:10070000D0938B00C0938A0024C084B5806884BDD8
:10071000C7BD1FC080918000806880938000D09307
:100720008900C093880015C08091B00080688093D4
:10073000B000C093B3000DC08091B0008062809380
:10074000B000C093B40005C0C038D1050CF0BBCFD9
:10075000B5CF209100013091010180911A01909153
:100760001B01820F931F90931B0180931A01019725
:100770008E3F910538F03195219531093093010173
:10078000209300010E94EC002B013C0185E0882EA3
:10079000912CA12CB12C0E94EC00DC01CB0184191E
:1007A0009509A609B709883E9340A105B10598F3BC
:1007B000F1E08F1A9108A108B10828EE420E23E05B
:1007C000521E611C711C81149104A104B10419F71B
:1007D000C1E0D0E080911A0190911B01B7010E9405
:1007E0003204C617D70734F484E191E00E94210255
:1007F0002196F0CF88E191E00E94210286E191E00C
:100800000E9421020E94170251CFE5E2F1E013821B
:10081000128288EE93E0A0E0B0E084839583A68303
:10082000B78386E091E09183808385EC90E09587A3
:10083000848784EC90E09787868780EC90E0918BAA
:10084000808B81EC90E0938B828B82EC90E0958B97
:10085000848B86EC90E0978B868B118E128E138E94
:10086000148E089597FB072E16F4009407D077FD99
:1008700009D00E94460407FC05D03EF4909581956E
:100880009F4F0895709561957F4F0895AA1BBB1BDC
:1008900051E107C0AA1FBB1FA617B70710F0A61B80
:1008A000B70B881F991F5A95A9F780959095BC01A1
:1008B000CD010895EE0FFF1F0590F491E02D0994EE
:0E08C00081E090E0F8940C946504F894FFCF6A
:1008CE00010000000000A80111013F01F5017001B7
:0A08DE004E0162012D000D0A00001A
:00000001FF
